{
  "_format": "hh-sol-artifact-1",
  "contractName": "LendingContract",
  "sourceName": "contracts/LendingContract.sol",
  "abi": [
    {
      "inputs": [
        {
          "internalType": "address",
          "name": "_borrower",
          "type": "address"
        },
        {
          "internalType": "uint256",
          "name": "_loanAmount",
          "type": "uint256"
        },
        {
          "internalType": "uint256",
          "name": "_interestRate",
          "type": "uint256"
        },
        {
          "internalType": "uint256",
          "name": "_repaymentPeriod",
          "type": "uint256"
        }
      ],
      "stateMutability": "nonpayable",
      "type": "constructor"
    },
    {
      "anonymous": false,
      "inputs": [
        {
          "indexed": true,
          "internalType": "address",
          "name": "lender",
          "type": "address"
        },
        {
          "indexed": false,
          "internalType": "uint256",
          "name": "amount",
          "type": "uint256"
        }
      ],
      "name": "LoanFunded",
      "type": "event"
    },
    {
      "anonymous": false,
      "inputs": [
        {
          "indexed": true,
          "internalType": "address",
          "name": "borrower",
          "type": "address"
        },
        {
          "indexed": false,
          "internalType": "uint256",
          "name": "amount",
          "type": "uint256"
        }
      ],
      "name": "LoanRepaid",
      "type": "event"
    },
    {
      "stateMutability": "payable",
      "type": "fallback"
    },
    {
      "inputs": [],
      "name": "borrower",
      "outputs": [
        {
          "internalType": "address",
          "name": "",
          "type": "address"
        }
      ],
      "stateMutability": "view",
      "type": "function"
    },
    {
      "inputs": [],
      "name": "dueDate",
      "outputs": [
        {
          "internalType": "uint256",
          "name": "",
          "type": "uint256"
        }
      ],
      "stateMutability": "view",
      "type": "function"
    },
    {
      "inputs": [],
      "name": "fundLoan",
      "outputs": [],
      "stateMutability": "payable",
      "type": "function"
    },
    {
      "inputs": [],
      "name": "getBalance",
      "outputs": [
        {
          "internalType": "uint256",
          "name": "",
          "type": "uint256"
        }
      ],
      "stateMutability": "view",
      "type": "function"
    },
    {
      "inputs": [],
      "name": "interestRate",
      "outputs": [
        {
          "internalType": "uint256",
          "name": "",
          "type": "uint256"
        }
      ],
      "stateMutability": "view",
      "type": "function"
    },
    {
      "inputs": [],
      "name": "isDueDate",
      "outputs": [
        {
          "internalType": "bool",
          "name": "",
          "type": "bool"
        }
      ],
      "stateMutability": "view",
      "type": "function"
    },
    {
      "inputs": [],
      "name": "isRepaid",
      "outputs": [
        {
          "internalType": "bool",
          "name": "",
          "type": "bool"
        }
      ],
      "stateMutability": "view",
      "type": "function"
    },
    {
      "inputs": [],
      "name": "lender",
      "outputs": [
        {
          "internalType": "address",
          "name": "",
          "type": "address"
        }
      ],
      "stateMutability": "view",
      "type": "function"
    },
    {
      "inputs": [],
      "name": "loanAmount",
      "outputs": [
        {
          "internalType": "uint256",
          "name": "",
          "type": "uint256"
        }
      ],
      "stateMutability": "view",
      "type": "function"
    },
    {
      "inputs": [],
      "name": "receiveEth",
      "outputs": [],
      "stateMutability": "payable",
      "type": "function"
    },
    {
      "inputs": [],
      "name": "repayLoan",
      "outputs": [],
      "stateMutability": "payable",
      "type": "function"
    },
    {
      "inputs": [],
      "name": "repaymentPeriod",
      "outputs": [
        {
          "internalType": "uint256",
          "name": "",
          "type": "uint256"
        }
      ],
      "stateMutability": "view",
      "type": "function"
    },
    {
      "stateMutability": "payable",
      "type": "receive"
    }
  ],
  "bytecode": "0x608060405234801561001057600080fd5b50604051610d4d380380610d4d83398181016040528101906100329190610156565b836000806101000a81548173ffffffffffffffffffffffffffffffffffffffff021916908373ffffffffffffffffffffffffffffffffffffffff160217905550826002819055508160038190555080600481905550804261009391906101ec565b6005819055506000600660006101000a81548160ff02191690831515021790555050505050610220565b600080fd5b600073ffffffffffffffffffffffffffffffffffffffff82169050919050565b60006100ed826100c2565b9050919050565b6100fd816100e2565b811461010857600080fd5b50565b60008151905061011a816100f4565b92915050565b6000819050919050565b61013381610120565b811461013e57600080fd5b50565b6000815190506101508161012a565b92915050565b600080600080608085870312156101705761016f6100bd565b5b600061017e8782880161010b565b945050602061018f87828801610141565b93505060406101a087828801610141565b92505060606101b187828801610141565b91505092959194509250565b7f4e487b7100000000000000000000000000000000000000000000000000000000600052601160045260246000fd5b60006101f782610120565b915061020283610120565b925082820190508082111561021a576102196101bd565b5b92915050565b610b1e8061022f6000396000f3fe6080604052600436106100ab5760003560e01c80638db57994116100645780638db579941461018f578063952ce7d7146101995780639d585f7f146101c4578063bcead63e146101ef578063d0bfec621461021a578063f966ade714610245576100ac565b806312065fe0146100ae5780634185f8eb146100d95780636164051a146100e3578063786716fe1461010e5780637c3a00fd146101395780637df1f1b914610164576100ac565b5b005b3480156100ba57600080fd5b506100c361024f565b6040516100d091906106bd565b60405180910390f35b6100e1610257565b005b3480156100ef57600080fd5b506100f8610259565b60405161010591906106f3565b60405180910390f35b34801561011a57600080fd5b5061012361026c565b60405161013091906106bd565b60405180910390f35b34801561014557600080fd5b5061014e610272565b60405161015b91906106bd565b60405180910390f35b34801561017057600080fd5b50610179610278565b604051610186919061074f565b60405180910390f35b61019761029c565b005b3480156101a557600080fd5b506101ae610421565b6040516101bb91906106f3565b60405180910390f35b3480156101d057600080fd5b506101d961042e565b6040516101e691906106bd565b60405180910390f35b3480156101fb57600080fd5b50610204610434565b604051610211919061074f565b60405180910390f35b34801561022657600080fd5b5061022f61045a565b60405161023c91906106bd565b60405180910390f35b61024d610460565b005b600047905090565b565b600660009054906101000a900460ff1681565b60055481565b60035481565b60008054906101000a900473ffffffffffffffffffffffffffffffffffffffff1681565b60008054906101000a900473ffffffffffffffffffffffffffffffffffffffff1673ffffffffffffffffffffffffffffffffffffffff163373ffffffffffffffffffffffffffffffffffffffff160361032a576040517f08c379a0000000000000000000000000000000000000000000000000000000008152600401610321906107ed565b60405180910390fd5b600254341461036e576040517f08c379a000000000000000000000000000000000000000000000000000000000815260040161036590610859565b60405180910390fd5b33600160006101000a81548173ffffffffffffffffffffffffffffffffffffffff021916908373ffffffffffffffffffffffffffffffffffffffff160217905550600160009054906101000a900473ffffffffffffffffffffffffffffffffffffffff1673ffffffffffffffffffffffffffffffffffffffff167f726d5f1a838fe31748f737fa3ae5539ccff95952adfc593a1299532b643ff7a83460405161041791906106bd565b60405180910390a2565b6000600554421015905090565b60025481565b600160009054906101000a900473ffffffffffffffffffffffffffffffffffffffff1681565b60045481565b60008054906101000a900473ffffffffffffffffffffffffffffffffffffffff1673ffffffffffffffffffffffffffffffffffffffff163373ffffffffffffffffffffffffffffffffffffffff16146104ee576040517f08c379a00000000000000000000000000000000000000000000000000000000081526004016104e5906108eb565b60405180910390fd5b600660009054906101000a900460ff161561053e576040517f08c379a000000000000000000000000000000000000000000000000000000000815260040161053590610957565b60405180910390fd5b600061271060035460025461055391906109a6565b61055d9190610a17565b60025461056a9190610a48565b9050803410156105af576040517f08c379a00000000000000000000000000000000000000000000000000000000081526004016105a690610ac8565b60405180910390fd5b6001600660006101000a81548160ff021916908315150217905550600160009054906101000a900473ffffffffffffffffffffffffffffffffffffffff1673ffffffffffffffffffffffffffffffffffffffff166108fc829081150290604051600060405180830381858888f19350505050158015610632573d6000803e3d6000fd5b5060008054906101000a900473ffffffffffffffffffffffffffffffffffffffff1673ffffffffffffffffffffffffffffffffffffffff167fc200a1f31dd659e356e0f112c82558e25f49f7b0f84438691cd96f5cb35588238260405161069991906106bd565b60405180910390a250565b6000819050919050565b6106b7816106a4565b82525050565b60006020820190506106d260008301846106ae565b92915050565b60008115159050919050565b6106ed816106d8565b82525050565b600060208201905061070860008301846106e4565b92915050565b600073ffffffffffffffffffffffffffffffffffffffff82169050919050565b60006107398261070e565b9050919050565b6107498161072e565b82525050565b60006020820190506107646000830184610740565b92915050565b600082825260208201905092915050565b7f426f72726f7765722063616e6e6f742066756e64207468656972206f776e206c60008201527f6f616e0000000000000000000000000000000000000000000000000000000000602082015250565b60006107d760238361076a565b91506107e28261077b565b604082019050919050565b60006020820190508181036000830152610806816107ca565b9050919050565b7f496e636f7272656374206c6f616e20616d6f756e740000000000000000000000600082015250565b600061084360158361076a565b915061084e8261080d565b602082019050919050565b6000602082019050818103600083015261087281610836565b9050919050565b7f4f6e6c792074686520626f72726f7765722063616e207265706179207468652060008201527f6c6f616e00000000000000000000000000000000000000000000000000000000602082015250565b60006108d560248361076a565b91506108e082610879565b604082019050919050565b60006020820190508181036000830152610904816108c8565b9050919050565b7f4c6f616e20697320616c72656164792072657061696400000000000000000000600082015250565b600061094160168361076a565b915061094c8261090b565b602082019050919050565b6000602082019050818103600083015261097081610934565b9050919050565b7f4e487b7100000000000000000000000000000000000000000000000000000000600052601160045260246000fd5b60006109b1826106a4565b91506109bc836106a4565b92508282026109ca816106a4565b915082820484148315176109e1576109e0610977565b5b5092915050565b7f4e487b7100000000000000000000000000000000000000000000000000000000600052601260045260246000fd5b6000610a22826106a4565b9150610a2d836106a4565b925082610a3d57610a3c6109e8565b5b828204905092915050565b6000610a53826106a4565b9150610a5e836106a4565b9250828201905080821115610a7657610a75610977565b5b92915050565b7f496e73756666696369656e742072657061796d656e7420616d6f756e74000000600082015250565b6000610ab2601d8361076a565b9150610abd82610a7c565b602082019050919050565b60006020820190508181036000830152610ae181610aa5565b905091905056fea26469706673582212205c07c01c72e52ead4410ae8acfbd71bffc3a5fff5112625f73d566968300a1d864736f6c634300081c0033",
  "linkReferences": {},
  "deployedLinkReferences": {}
}