{
  "_format": "hh-sol-artifact-1",
  "contractName": "LendingFactory",
  "sourceName": "contracts/LendingFactory.sol",
  "abi": [
    {
      "anonymous": false,
      "inputs": [
        {
          "indexed": true,
          "internalType": "uint256",
          "name": "requestId",
          "type": "uint256"
        },
        {
          "indexed": true,
          "internalType": "address",
          "name": "borrower",
          "type": "address"
        }
      ],
      "name": "BorrowingRequestCreated",
      "type": "event"
    },
    {
      "anonymous": false,
      "inputs": [
        {
          "indexed": true,
          "internalType": "address",
          "name": "contractAddress",
          "type": "address"
        },
        {
          "indexed": true,
          "internalType": "address",
          "name": "borrower",
          "type": "address"
        },
        {
          "indexed": true,
          "internalType": "address",
          "name": "lender",
          "type": "address"
        }
      ],
      "name": "LendingContractCreated",
      "type": "event"
    },
    {
      "inputs": [
        {
          "internalType": "uint256",
          "name": "",
          "type": "uint256"
        }
      ],
      "name": "borrowingRequests",
      "outputs": [
        {
          "internalType": "uint256",
          "name": "id",
          "type": "uint256"
        },
        {
          "internalType": "address",
          "name": "borrower",
          "type": "address"
        },
        {
          "internalType": "uint256",
          "name": "loanAmount",
          "type": "uint256"
        },
        {
          "internalType": "uint256",
          "name": "interestRate",
          "type": "uint256"
        },
        {
          "internalType": "uint256",
          "name": "repaymentPeriod",
          "type": "uint256"
        },
        {
          "internalType": "bool",
          "name": "isFunded",
          "type": "bool"
        }
      ],
      "stateMutability": "view",
      "type": "function"
    },
    {
      "inputs": [
        {
          "internalType": "uint256",
          "name": "_loanAmount",
          "type": "uint256"
        },
        {
          "internalType": "uint256",
          "name": "_interestRate",
          "type": "uint256"
        },
        {
          "internalType": "uint256",
          "name": "_repaymentPeriod",
          "type": "uint256"
        }
      ],
      "name": "createBorrowingRequest",
      "outputs": [],
      "stateMutability": "nonpayable",
      "type": "function"
    },
    {
      "inputs": [
        {
          "internalType": "uint256",
          "name": "_requestId",
          "type": "uint256"
        }
      ],
      "name": "fundBorrowingRequest",
      "outputs": [],
      "stateMutability": "payable",
      "type": "function"
    },
    {
      "inputs": [],
      "name": "getBorrowingRequests",
      "outputs": [
        {
          "components": [
            {
              "internalType": "uint256",
              "name": "id",
              "type": "uint256"
            },
            {
              "internalType": "address",
              "name": "borrower",
              "type": "address"
            },
            {
              "internalType": "uint256",
              "name": "loanAmount",
              "type": "uint256"
            },
            {
              "internalType": "uint256",
              "name": "interestRate",
              "type": "uint256"
            },
            {
              "internalType": "uint256",
              "name": "repaymentPeriod",
              "type": "uint256"
            },
            {
              "internalType": "bool",
              "name": "isFunded",
              "type": "bool"
            }
          ],
          "internalType": "struct LendingFactory.BorrowingRequest[]",
          "name": "",
          "type": "tuple[]"
        }
      ],
      "stateMutability": "view",
      "type": "function"
    },
    {
      "inputs": [],
      "name": "getLendingContracts",
      "outputs": [
        {
          "internalType": "address[]",
          "name": "",
          "type": "address[]"
        }
      ],
      "stateMutability": "view",
      "type": "function"
    },
    {
      "inputs": [
        {
          "internalType": "uint256",
          "name": "",
          "type": "uint256"
        }
      ],
      "name": "lendingContracts",
      "outputs": [
        {
          "internalType": "address",
          "name": "",
          "type": "address"
        }
      ],
      "stateMutability": "view",
      "type": "function"
    }
  ],
  "bytecode": "0x6080604052348015600f57600080fd5b50611c128061001f6000396000f3fe6080604052600436106100555760003560e01c80630f8ff89b1461005a578063531a2a94146100855780635fcc5321146100c257806380a96007146100ed578063d7d8cb531461012f578063eebb3b961461014b575b600080fd5b34801561006657600080fd5b5061006f610174565b60405161007c91906109ff565b60405180910390f35b34801561009157600080fd5b506100ac60048036038101906100a79190610a52565b61026c565b6040516100b99190610a8e565b60405180910390f35b3480156100ce57600080fd5b506100d76102ab565b6040516100e49190610b58565b60405180910390f35b3480156100f957600080fd5b50610114600480360381019061010f9190610a52565b610339565b60405161012696959493929190610b98565b60405180910390f35b61014960048036038101906101449190610a52565b6103b2565b005b34801561015757600080fd5b50610172600480360381019061016d9190610bf9565b6106e6565b005b60606000805480602002602001604051908101604052809291908181526020016000905b8282101561026357838290600052602060002090600602016040518060c0016040529081600082015481526020016001820160009054906101000a900473ffffffffffffffffffffffffffffffffffffffff1673ffffffffffffffffffffffffffffffffffffffff1673ffffffffffffffffffffffffffffffffffffffff1681526020016002820154815260200160038201548152602001600482015481526020016005820160009054906101000a900460ff16151515158152505081526020019060010190610198565b50505050905090565b6001818154811061027c57600080fd5b906000526020600020016000915054906101000a900473ffffffffffffffffffffffffffffffffffffffff1681565b6060600180548060200260200160405190810160405280929190818152602001828054801561032f57602002820191906000526020600020905b8160009054906101000a900473ffffffffffffffffffffffffffffffffffffffff1673ffffffffffffffffffffffffffffffffffffffff16815260200190600101908083116102e5575b5050505050905090565b6000818154811061034957600080fd5b90600052602060002090600602016000915090508060000154908060010160009054906101000a900473ffffffffffffffffffffffffffffffffffffffff16908060020154908060030154908060040154908060050160009054906101000a900460ff16905086565b60008054905081106103f9576040517f08c379a00000000000000000000000000000000000000000000000000000000081526004016103f090610ca9565b60405180910390fd5b600080828154811061040e5761040d610cc9565b5b906000526020600020906006020190508060050160009054906101000a900460ff1615610470576040517f08c379a000000000000000000000000000000000000000000000000000000000815260040161046790610d44565b60405180910390fd5b806002015434146104b6576040517f08c379a00000000000000000000000000000000000000000000000000000000081526004016104ad90610db0565b60405180910390fd5b60018160050160006101000a81548160ff02191690831515021790555060008160010160009054906101000a900473ffffffffffffffffffffffffffffffffffffffff1682600201548360030154846004015460405161051590610853565b6105229493929190610dd0565b604051809103906000f08015801561053e573d6000803e3d6000fd5b5090508073ffffffffffffffffffffffffffffffffffffffff166108fc349081150290604051600060405180830381858888f19350505050158015610587573d6000803e3d6000fd5b508073ffffffffffffffffffffffffffffffffffffffff16638db57994346040518263ffffffff1660e01b81526004016000604051808303818588803b1580156105d057600080fd5b505af11580156105e4573d6000803e3d6000fd5b50505050506001819080600181540180825580915050600190039060005260206000200160009091909190916101000a81548173ffffffffffffffffffffffffffffffffffffffff021916908373ffffffffffffffffffffffffffffffffffffffff1602179055503373ffffffffffffffffffffffffffffffffffffffff168260010160009054906101000a900473ffffffffffffffffffffffffffffffffffffffff1673ffffffffffffffffffffffffffffffffffffffff168273ffffffffffffffffffffffffffffffffffffffff167f663204f1b33ffe60ffd4834a784b8245071307fabd741abde19ed0ba9cf84f8860405160405180910390a4505050565b60006040518060c0016040528060016000805490506107059190610e44565b81526020013373ffffffffffffffffffffffffffffffffffffffff1681526020018581526020018481526020018381526020016000151581525090806001815401808255809150506001900390600052602060002090600602016000909190919091506000820151816000015560208201518160010160006101000a81548173ffffffffffffffffffffffffffffffffffffffff021916908373ffffffffffffffffffffffffffffffffffffffff16021790555060408201518160020155606082015181600301556080820151816004015560a08201518160050160006101000a81548160ff02191690831515021790555050503373ffffffffffffffffffffffffffffffffffffffff1660016000805490506108229190610e44565b7fbee01cbb349f6540d4370b913c4703621ab4417cc41c3ffa1686303ed4cd69e760405160405180910390a3505050565b610d6480610e7983390190565b600081519050919050565b600082825260208201905092915050565b6000819050602082019050919050565b6000819050919050565b61089f8161088c565b82525050565b600073ffffffffffffffffffffffffffffffffffffffff82169050919050565b60006108d0826108a5565b9050919050565b6108e0816108c5565b82525050565b60008115159050919050565b6108fb816108e6565b82525050565b60c0820160008201516109176000850182610896565b50602082015161092a60208501826108d7565b50604082015161093d6040850182610896565b5060608201516109506060850182610896565b5060808201516109636080850182610896565b5060a082015161097660a08501826108f2565b50505050565b60006109888383610901565b60c08301905092915050565b6000602082019050919050565b60006109ac82610860565b6109b6818561086b565b93506109c18361087c565b8060005b838110156109f25781516109d9888261097c565b97506109e483610994565b9250506001810190506109c5565b5085935050505092915050565b60006020820190508181036000830152610a1981846109a1565b905092915050565b600080fd5b610a2f8161088c565b8114610a3a57600080fd5b50565b600081359050610a4c81610a26565b92915050565b600060208284031215610a6857610a67610a21565b5b6000610a7684828501610a3d565b91505092915050565b610a88816108c5565b82525050565b6000602082019050610aa36000830184610a7f565b92915050565b600081519050919050565b600082825260208201905092915050565b6000819050602082019050919050565b6000610ae183836108d7565b60208301905092915050565b6000602082019050919050565b6000610b0582610aa9565b610b0f8185610ab4565b9350610b1a83610ac5565b8060005b83811015610b4b578151610b328882610ad5565b9750610b3d83610aed565b925050600181019050610b1e565b5085935050505092915050565b60006020820190508181036000830152610b728184610afa565b905092915050565b610b838161088c565b82525050565b610b92816108e6565b82525050565b600060c082019050610bad6000830189610b7a565b610bba6020830188610a7f565b610bc76040830187610b7a565b610bd46060830186610b7a565b610be16080830185610b7a565b610bee60a0830184610b89565b979650505050505050565b600080600060608486031215610c1257610c11610a21565b5b6000610c2086828701610a3d565b9350506020610c3186828701610a3d565b9250506040610c4286828701610a3d565b9150509250925092565b600082825260208201905092915050565b7f496e76616c696420726571756573742049440000000000000000000000000000600082015250565b6000610c93601283610c4c565b9150610c9e82610c5d565b602082019050919050565b60006020820190508181036000830152610cc281610c86565b9050919050565b7f4e487b7100000000000000000000000000000000000000000000000000000000600052603260045260246000fd5b7f5265717565737420697320616c72656164792066756e64656400000000000000600082015250565b6000610d2e601983610c4c565b9150610d3982610cf8565b602082019050919050565b60006020820190508181036000830152610d5d81610d21565b9050919050565b7f496e636f7272656374206c6f616e20616d6f756e740000000000000000000000600082015250565b6000610d9a601583610c4c565b9150610da582610d64565b602082019050919050565b60006020820190508181036000830152610dc981610d8d565b9050919050565b6000608082019050610de56000830187610a7f565b610df26020830186610b7a565b610dff6040830185610b7a565b610e0c6060830184610b7a565b95945050505050565b7f4e487b7100000000000000000000000000000000000000000000000000000000600052601160045260246000fd5b6000610e4f8261088c565b9150610e5a8361088c565b9250828203905081811115610e7257610e71610e15565b5b9291505056fe608060405234801561001057600080fd5b50604051610d64380380610d6483398181016040528101906100329190610156565b836000806101000a81548173ffffffffffffffffffffffffffffffffffffffff021916908373ffffffffffffffffffffffffffffffffffffffff160217905550826002819055508160038190555080600481905550804261009391906101ec565b6005819055506000600660006101000a81548160ff02191690831515021790555050505050610220565b600080fd5b600073ffffffffffffffffffffffffffffffffffffffff82169050919050565b60006100ed826100c2565b9050919050565b6100fd816100e2565b811461010857600080fd5b50565b60008151905061011a816100f4565b92915050565b6000819050919050565b61013381610120565b811461013e57600080fd5b50565b6000815190506101508161012a565b92915050565b600080600080608085870312156101705761016f6100bd565b5b600061017e8782880161010b565b945050602061018f87828801610141565b93505060406101a087828801610141565b92505060606101b187828801610141565b91505092959194509250565b7f4e487b7100000000000000000000000000000000000000000000000000000000600052601160045260246000fd5b60006101f782610120565b915061020283610120565b925082820190508082111561021a576102196101bd565b5b92915050565b610b358061022f6000396000f3fe6080604052600436106100865760003560e01c80638db57994116100595780638db57994146101375780639d585f7f14610141578063bcead63e1461016c578063d0bfec6214610197578063f966ade7146101c257610086565b80636164051a1461008b578063786716fe146100b65780637c3a00fd146100e15780637df1f1b91461010c575b600080fd5b34801561009757600080fd5b506100a06101cc565b6040516100ad919061066a565b60405180910390f35b3480156100c257600080fd5b506100cb6101df565b6040516100d8919061069e565b60405180910390f35b3480156100ed57600080fd5b506100f66101e5565b604051610103919061069e565b60405180910390f35b34801561011857600080fd5b506101216101eb565b60405161012e91906106fa565b60405180910390f35b61013f61020f565b005b34801561014d57600080fd5b50610156610394565b604051610163919061069e565b60405180910390f35b34801561017857600080fd5b5061018161039a565b60405161018e91906106fa565b60405180910390f35b3480156101a357600080fd5b506101ac6103c0565b6040516101b9919061069e565b60405180910390f35b6101ca6103c6565b005b600660009054906101000a900460ff1681565b60055481565b60035481565b60008054906101000a900473ffffffffffffffffffffffffffffffffffffffff1681565b60008054906101000a900473ffffffffffffffffffffffffffffffffffffffff1673ffffffffffffffffffffffffffffffffffffffff163373ffffffffffffffffffffffffffffffffffffffff160361029d576040517f08c379a000000000000000000000000000000000000000000000000000000000815260040161029490610798565b60405180910390fd5b60025434146102e1576040517f08c379a00000000000000000000000000000000000000000000000000000000081526004016102d890610804565b60405180910390fd5b33600160006101000a81548173ffffffffffffffffffffffffffffffffffffffff021916908373ffffffffffffffffffffffffffffffffffffffff160217905550600160009054906101000a900473ffffffffffffffffffffffffffffffffffffffff1673ffffffffffffffffffffffffffffffffffffffff167f726d5f1a838fe31748f737fa3ae5539ccff95952adfc593a1299532b643ff7a83460405161038a919061069e565b60405180910390a2565b60025481565b600160009054906101000a900473ffffffffffffffffffffffffffffffffffffffff1681565b60045481565b60008054906101000a900473ffffffffffffffffffffffffffffffffffffffff1673ffffffffffffffffffffffffffffffffffffffff163373ffffffffffffffffffffffffffffffffffffffff1614610454576040517f08c379a000000000000000000000000000000000000000000000000000000000815260040161044b90610896565b60405180910390fd5b600660009054906101000a900460ff16156104a4576040517f08c379a000000000000000000000000000000000000000000000000000000000815260040161049b90610902565b60405180910390fd5b6005544211156104e9576040517f08c379a00000000000000000000000000000000000000000000000000000000081526004016104e09061096e565b60405180910390fd5b60006127106003546002546104fe91906109bd565b6105089190610a2e565b6002546105159190610a5f565b90508034101561055a576040517f08c379a000000000000000000000000000000000000000000000000000000000815260040161055190610adf565b60405180910390fd5b6001600660006101000a81548160ff021916908315150217905550600160009054906101000a900473ffffffffffffffffffffffffffffffffffffffff1673ffffffffffffffffffffffffffffffffffffffff166108fc829081150290604051600060405180830381858888f193505050501580156105dd573d6000803e3d6000fd5b5060008054906101000a900473ffffffffffffffffffffffffffffffffffffffff1673ffffffffffffffffffffffffffffffffffffffff167fc200a1f31dd659e356e0f112c82558e25f49f7b0f84438691cd96f5cb355882334604051610644919061069e565b60405180910390a250565b60008115159050919050565b6106648161064f565b82525050565b600060208201905061067f600083018461065b565b92915050565b6000819050919050565b61069881610685565b82525050565b60006020820190506106b3600083018461068f565b92915050565b600073ffffffffffffffffffffffffffffffffffffffff82169050919050565b60006106e4826106b9565b9050919050565b6106f4816106d9565b82525050565b600060208201905061070f60008301846106eb565b92915050565b600082825260208201905092915050565b7f426f72726f7765722063616e6e6f742066756e64207468656972206f776e206c60008201527f6f616e0000000000000000000000000000000000000000000000000000000000602082015250565b6000610782602383610715565b915061078d82610726565b604082019050919050565b600060208201905081810360008301526107b181610775565b9050919050565b7f496e636f7272656374206c6f616e20616d6f756e740000000000000000000000600082015250565b60006107ee601583610715565b91506107f9826107b8565b602082019050919050565b6000602082019050818103600083015261081d816107e1565b9050919050565b7f4f6e6c792074686520626f72726f7765722063616e207265706179207468652060008201527f6c6f616e00000000000000000000000000000000000000000000000000000000602082015250565b6000610880602483610715565b915061088b82610824565b604082019050919050565b600060208201905081810360008301526108af81610873565b9050919050565b7f4c6f616e20697320616c72656164792072657061696400000000000000000000600082015250565b60006108ec601683610715565b91506108f7826108b6565b602082019050919050565b6000602082019050818103600083015261091b816108df565b9050919050565b7f4c6f616e206973206f7665726475650000000000000000000000000000000000600082015250565b6000610958600f83610715565b915061096382610922565b602082019050919050565b600060208201905081810360008301526109878161094b565b9050919050565b7f4e487b7100000000000000000000000000000000000000000000000000000000600052601160045260246000fd5b60006109c882610685565b91506109d383610685565b92508282026109e181610685565b915082820484148315176109f8576109f761098e565b5b5092915050565b7f4e487b7100000000000000000000000000000000000000000000000000000000600052601260045260246000fd5b6000610a3982610685565b9150610a4483610685565b925082610a5457610a536109ff565b5b828204905092915050565b6000610a6a82610685565b9150610a7583610685565b9250828201905080821115610a8d57610a8c61098e565b5b92915050565b7f496e73756666696369656e742072657061796d656e7420616d6f756e74000000600082015250565b6000610ac9601d83610715565b9150610ad482610a93565b602082019050919050565b60006020820190508181036000830152610af881610abc565b905091905056fea264697066735822122095db2449c01b34b0bd1dd0085024fbddfb31134159c6a5935f9e6e2ac004fa0f64736f6c634300081c0033a2646970667358221220c20fe3989c4d1997931bfd32c16f5380b85ce79719ec706b5d11e2f2a5c4ecf664736f6c634300081c0033",
  "linkReferences": {},
  "deployedLinkReferences": {}
}