{
  "_format": "hh-sol-artifact-1",
  "contractName": "LendingFactory",
  "sourceName": "contracts/LendingFactory.sol",
  "abi": [
    {
      "anonymous": false,
      "inputs": [
        {
          "indexed": true,
          "internalType": "uint256",
          "name": "requestId",
          "type": "uint256"
        },
        {
          "indexed": true,
          "internalType": "address",
          "name": "borrower",
          "type": "address"
        }
      ],
      "name": "BorrowingRequestCreated",
      "type": "event"
    },
    {
      "anonymous": false,
      "inputs": [
        {
          "indexed": true,
          "internalType": "address",
          "name": "contractAddress",
          "type": "address"
        },
        {
          "indexed": true,
          "internalType": "address",
          "name": "borrower",
          "type": "address"
        },
        {
          "indexed": true,
          "internalType": "address",
          "name": "lender",
          "type": "address"
        }
      ],
      "name": "LendingContractCreated",
      "type": "event"
    },
    {
      "inputs": [
        {
          "internalType": "uint256",
          "name": "",
          "type": "uint256"
        }
      ],
      "name": "borrowingRequests",
      "outputs": [
        {
          "internalType": "address",
          "name": "borrower",
          "type": "address"
        },
        {
          "internalType": "uint256",
          "name": "loanAmount",
          "type": "uint256"
        },
        {
          "internalType": "uint256",
          "name": "interestRate",
          "type": "uint256"
        },
        {
          "internalType": "uint256",
          "name": "repaymentPeriod",
          "type": "uint256"
        },
        {
          "internalType": "bool",
          "name": "isFunded",
          "type": "bool"
        }
      ],
      "stateMutability": "view",
      "type": "function"
    },
    {
      "inputs": [
        {
          "internalType": "uint256",
          "name": "_loanAmount",
          "type": "uint256"
        },
        {
          "internalType": "uint256",
          "name": "_interestRate",
          "type": "uint256"
        },
        {
          "internalType": "uint256",
          "name": "_repaymentPeriod",
          "type": "uint256"
        }
      ],
      "name": "createBorrowingRequest",
      "outputs": [],
      "stateMutability": "nonpayable",
      "type": "function"
    },
    {
      "inputs": [
        {
          "internalType": "uint256",
          "name": "_requestId",
          "type": "uint256"
        }
      ],
      "name": "fundBorrowingRequest",
      "outputs": [],
      "stateMutability": "payable",
      "type": "function"
    },
    {
      "inputs": [],
      "name": "getBorrowingRequests",
      "outputs": [
        {
          "components": [
            {
              "internalType": "address",
              "name": "borrower",
              "type": "address"
            },
            {
              "internalType": "uint256",
              "name": "loanAmount",
              "type": "uint256"
            },
            {
              "internalType": "uint256",
              "name": "interestRate",
              "type": "uint256"
            },
            {
              "internalType": "uint256",
              "name": "repaymentPeriod",
              "type": "uint256"
            },
            {
              "internalType": "bool",
              "name": "isFunded",
              "type": "bool"
            }
          ],
          "internalType": "struct LendingFactory.BorrowingRequest[]",
          "name": "",
          "type": "tuple[]"
        }
      ],
      "stateMutability": "view",
      "type": "function"
    },
    {
      "inputs": [],
      "name": "getLendingContracts",
      "outputs": [
        {
          "internalType": "address[]",
          "name": "",
          "type": "address[]"
        }
      ],
      "stateMutability": "view",
      "type": "function"
    },
    {
      "inputs": [
        {
          "internalType": "uint256",
          "name": "",
          "type": "uint256"
        }
      ],
      "name": "lendingContracts",
      "outputs": [
        {
          "internalType": "address",
          "name": "",
          "type": "address"
        }
      ],
      "stateMutability": "view",
      "type": "function"
    }
  ],
  "bytecode": "0x6080604052348015600f57600080fd5b50611bbf8061001f6000396000f3fe6080604052600436106100555760003560e01c80630f8ff89b1461005a578063531a2a94146100855780635fcc5321146100c257806380a96007146100ed578063d7d8cb531461012e578063eebb3b961461014a575b600080fd5b34801561006657600080fd5b5061006f610173565b60405161007c91906109ba565b60405180910390f35b34801561009157600080fd5b506100ac60048036038101906100a79190610a0d565b610261565b6040516100b99190610a49565b60405180910390f35b3480156100ce57600080fd5b506100d76102a0565b6040516100e49190610b13565b60405180910390f35b3480156100f957600080fd5b50610114600480360381019061010f9190610a0d565b61032e565b604051610125959493929190610b53565b60405180910390f35b61014860048036038101906101439190610a0d565b6103a1565b005b34801561015657600080fd5b50610171600480360381019061016c9190610ba6565b6106d5565b005b60606000805480602002602001604051908101604052809291908181526020016000905b8282101561025857838290600052602060002090600502016040518060a00160405290816000820160009054906101000a900473ffffffffffffffffffffffffffffffffffffffff1673ffffffffffffffffffffffffffffffffffffffff1673ffffffffffffffffffffffffffffffffffffffff1681526020016001820154815260200160028201548152602001600382015481526020016004820160009054906101000a900460ff16151515158152505081526020019060010190610197565b50505050905090565b6001818154811061027157600080fd5b906000526020600020016000915054906101000a900473ffffffffffffffffffffffffffffffffffffffff1681565b6060600180548060200260200160405190810160405280929190818152602001828054801561032457602002820191906000526020600020905b8160009054906101000a900473ffffffffffffffffffffffffffffffffffffffff1673ffffffffffffffffffffffffffffffffffffffff16815260200190600101908083116102da575b5050505050905090565b6000818154811061033e57600080fd5b90600052602060002090600502016000915090508060000160009054906101000a900473ffffffffffffffffffffffffffffffffffffffff16908060010154908060020154908060030154908060040160009054906101000a900460ff16905085565b60008054905081106103e8576040517f08c379a00000000000000000000000000000000000000000000000000000000081526004016103df90610c56565b60405180910390fd5b60008082815481106103fd576103fc610c76565b5b906000526020600020906005020190508060040160009054906101000a900460ff161561045f576040517f08c379a000000000000000000000000000000000000000000000000000000000815260040161045690610cf1565b60405180910390fd5b806001015434146104a5576040517f08c379a000000000000000000000000000000000000000000000000000000000815260040161049c90610d5d565b60405180910390fd5b60018160040160006101000a81548160ff02191690831515021790555060008160000160009054906101000a900473ffffffffffffffffffffffffffffffffffffffff1682600101548360020154846003015460405161050490610821565b6105119493929190610d7d565b604051809103906000f08015801561052d573d6000803e3d6000fd5b5090508073ffffffffffffffffffffffffffffffffffffffff166108fc349081150290604051600060405180830381858888f19350505050158015610576573d6000803e3d6000fd5b508073ffffffffffffffffffffffffffffffffffffffff16638db57994346040518263ffffffff1660e01b81526004016000604051808303818588803b1580156105bf57600080fd5b505af11580156105d3573d6000803e3d6000fd5b50505050506001819080600181540180825580915050600190039060005260206000200160009091909190916101000a81548173ffffffffffffffffffffffffffffffffffffffff021916908373ffffffffffffffffffffffffffffffffffffffff1602179055503373ffffffffffffffffffffffffffffffffffffffff168260000160009054906101000a900473ffffffffffffffffffffffffffffffffffffffff1673ffffffffffffffffffffffffffffffffffffffff168273ffffffffffffffffffffffffffffffffffffffff167f663204f1b33ffe60ffd4834a784b8245071307fabd741abde19ed0ba9cf84f8860405160405180910390a4505050565b60006040518060a001604052803373ffffffffffffffffffffffffffffffffffffffff16815260200185815260200184815260200183815260200160001515815250908060018154018082558091505060019003906000526020600020906005020160009091909190915060008201518160000160006101000a81548173ffffffffffffffffffffffffffffffffffffffff021916908373ffffffffffffffffffffffffffffffffffffffff16021790555060208201518160010155604082015181600201556060820151816003015560808201518160040160006101000a81548160ff02191690831515021790555050503373ffffffffffffffffffffffffffffffffffffffff1660016000805490506107f09190610df1565b7fbee01cbb349f6540d4370b913c4703621ab4417cc41c3ffa1686303ed4cd69e760405160405180910390a3505050565b610d6480610e2683390190565b600081519050919050565b600082825260208201905092915050565b6000819050602082019050919050565b600073ffffffffffffffffffffffffffffffffffffffff82169050919050565b60006108858261085a565b9050919050565b6108958161087a565b82525050565b6000819050919050565b6108ae8161089b565b82525050565b60008115159050919050565b6108c9816108b4565b82525050565b60a0820160008201516108e5600085018261088c565b5060208201516108f860208501826108a5565b50604082015161090b60408501826108a5565b50606082015161091e60608501826108a5565b50608082015161093160808501826108c0565b50505050565b600061094383836108cf565b60a08301905092915050565b6000602082019050919050565b60006109678261082e565b6109718185610839565b935061097c8361084a565b8060005b838110156109ad5781516109948882610937565b975061099f8361094f565b925050600181019050610980565b5085935050505092915050565b600060208201905081810360008301526109d4818461095c565b905092915050565b600080fd5b6109ea8161089b565b81146109f557600080fd5b50565b600081359050610a07816109e1565b92915050565b600060208284031215610a2357610a226109dc565b5b6000610a31848285016109f8565b91505092915050565b610a438161087a565b82525050565b6000602082019050610a5e6000830184610a3a565b92915050565b600081519050919050565b600082825260208201905092915050565b6000819050602082019050919050565b6000610a9c838361088c565b60208301905092915050565b6000602082019050919050565b6000610ac082610a64565b610aca8185610a6f565b9350610ad583610a80565b8060005b83811015610b06578151610aed8882610a90565b9750610af883610aa8565b925050600181019050610ad9565b5085935050505092915050565b60006020820190508181036000830152610b2d8184610ab5565b905092915050565b610b3e8161089b565b82525050565b610b4d816108b4565b82525050565b600060a082019050610b686000830188610a3a565b610b756020830187610b35565b610b826040830186610b35565b610b8f6060830185610b35565b610b9c6080830184610b44565b9695505050505050565b600080600060608486031215610bbf57610bbe6109dc565b5b6000610bcd868287016109f8565b9350506020610bde868287016109f8565b9250506040610bef868287016109f8565b9150509250925092565b600082825260208201905092915050565b7f496e76616c696420726571756573742049440000000000000000000000000000600082015250565b6000610c40601283610bf9565b9150610c4b82610c0a565b602082019050919050565b60006020820190508181036000830152610c6f81610c33565b9050919050565b7f4e487b7100000000000000000000000000000000000000000000000000000000600052603260045260246000fd5b7f5265717565737420697320616c72656164792066756e64656400000000000000600082015250565b6000610cdb601983610bf9565b9150610ce682610ca5565b602082019050919050565b60006020820190508181036000830152610d0a81610cce565b9050919050565b7f496e636f7272656374206c6f616e20616d6f756e740000000000000000000000600082015250565b6000610d47601583610bf9565b9150610d5282610d11565b602082019050919050565b60006020820190508181036000830152610d7681610d3a565b9050919050565b6000608082019050610d926000830187610a3a565b610d9f6020830186610b35565b610dac6040830185610b35565b610db96060830184610b35565b95945050505050565b7f4e487b7100000000000000000000000000000000000000000000000000000000600052601160045260246000fd5b6000610dfc8261089b565b9150610e078361089b565b9250828203905081811115610e1f57610e1e610dc2565b5b9291505056fe608060405234801561001057600080fd5b50604051610d64380380610d6483398181016040528101906100329190610156565b836000806101000a81548173ffffffffffffffffffffffffffffffffffffffff021916908373ffffffffffffffffffffffffffffffffffffffff160217905550826002819055508160038190555080600481905550804261009391906101ec565b6005819055506000600660006101000a81548160ff02191690831515021790555050505050610220565b600080fd5b600073ffffffffffffffffffffffffffffffffffffffff82169050919050565b60006100ed826100c2565b9050919050565b6100fd816100e2565b811461010857600080fd5b50565b60008151905061011a816100f4565b92915050565b6000819050919050565b61013381610120565b811461013e57600080fd5b50565b6000815190506101508161012a565b92915050565b600080600080608085870312156101705761016f6100bd565b5b600061017e8782880161010b565b945050602061018f87828801610141565b93505060406101a087828801610141565b92505060606101b187828801610141565b91505092959194509250565b7f4e487b7100000000000000000000000000000000000000000000000000000000600052601160045260246000fd5b60006101f782610120565b915061020283610120565b925082820190508082111561021a576102196101bd565b5b92915050565b610b358061022f6000396000f3fe6080604052600436106100865760003560e01c80638db57994116100595780638db57994146101375780639d585f7f14610141578063bcead63e1461016c578063d0bfec6214610197578063f966ade7146101c257610086565b80636164051a1461008b578063786716fe146100b65780637c3a00fd146100e15780637df1f1b91461010c575b600080fd5b34801561009757600080fd5b506100a06101cc565b6040516100ad919061066a565b60405180910390f35b3480156100c257600080fd5b506100cb6101df565b6040516100d8919061069e565b60405180910390f35b3480156100ed57600080fd5b506100f66101e5565b604051610103919061069e565b60405180910390f35b34801561011857600080fd5b506101216101eb565b60405161012e91906106fa565b60405180910390f35b61013f61020f565b005b34801561014d57600080fd5b50610156610394565b604051610163919061069e565b60405180910390f35b34801561017857600080fd5b5061018161039a565b60405161018e91906106fa565b60405180910390f35b3480156101a357600080fd5b506101ac6103c0565b6040516101b9919061069e565b60405180910390f35b6101ca6103c6565b005b600660009054906101000a900460ff1681565b60055481565b60035481565b60008054906101000a900473ffffffffffffffffffffffffffffffffffffffff1681565b60008054906101000a900473ffffffffffffffffffffffffffffffffffffffff1673ffffffffffffffffffffffffffffffffffffffff163373ffffffffffffffffffffffffffffffffffffffff160361029d576040517f08c379a000000000000000000000000000000000000000000000000000000000815260040161029490610798565b60405180910390fd5b60025434146102e1576040517f08c379a00000000000000000000000000000000000000000000000000000000081526004016102d890610804565b60405180910390fd5b33600160006101000a81548173ffffffffffffffffffffffffffffffffffffffff021916908373ffffffffffffffffffffffffffffffffffffffff160217905550600160009054906101000a900473ffffffffffffffffffffffffffffffffffffffff1673ffffffffffffffffffffffffffffffffffffffff167f726d5f1a838fe31748f737fa3ae5539ccff95952adfc593a1299532b643ff7a83460405161038a919061069e565b60405180910390a2565b60025481565b600160009054906101000a900473ffffffffffffffffffffffffffffffffffffffff1681565b60045481565b60008054906101000a900473ffffffffffffffffffffffffffffffffffffffff1673ffffffffffffffffffffffffffffffffffffffff163373ffffffffffffffffffffffffffffffffffffffff1614610454576040517f08c379a000000000000000000000000000000000000000000000000000000000815260040161044b90610896565b60405180910390fd5b600660009054906101000a900460ff16156104a4576040517f08c379a000000000000000000000000000000000000000000000000000000000815260040161049b90610902565b60405180910390fd5b6005544211156104e9576040517f08c379a00000000000000000000000000000000000000000000000000000000081526004016104e09061096e565b60405180910390fd5b60006127106003546002546104fe91906109bd565b6105089190610a2e565b6002546105159190610a5f565b90508034101561055a576040517f08c379a000000000000000000000000000000000000000000000000000000000815260040161055190610adf565b60405180910390fd5b6001600660006101000a81548160ff021916908315150217905550600160009054906101000a900473ffffffffffffffffffffffffffffffffffffffff1673ffffffffffffffffffffffffffffffffffffffff166108fc829081150290604051600060405180830381858888f193505050501580156105dd573d6000803e3d6000fd5b5060008054906101000a900473ffffffffffffffffffffffffffffffffffffffff1673ffffffffffffffffffffffffffffffffffffffff167fc200a1f31dd659e356e0f112c82558e25f49f7b0f84438691cd96f5cb355882334604051610644919061069e565b60405180910390a250565b60008115159050919050565b6106648161064f565b82525050565b600060208201905061067f600083018461065b565b92915050565b6000819050919050565b61069881610685565b82525050565b60006020820190506106b3600083018461068f565b92915050565b600073ffffffffffffffffffffffffffffffffffffffff82169050919050565b60006106e4826106b9565b9050919050565b6106f4816106d9565b82525050565b600060208201905061070f60008301846106eb565b92915050565b600082825260208201905092915050565b7f426f72726f7765722063616e6e6f742066756e64207468656972206f776e206c60008201527f6f616e0000000000000000000000000000000000000000000000000000000000602082015250565b6000610782602383610715565b915061078d82610726565b604082019050919050565b600060208201905081810360008301526107b181610775565b9050919050565b7f496e636f7272656374206c6f616e20616d6f756e740000000000000000000000600082015250565b60006107ee601583610715565b91506107f9826107b8565b602082019050919050565b6000602082019050818103600083015261081d816107e1565b9050919050565b7f4f6e6c792074686520626f72726f7765722063616e207265706179207468652060008201527f6c6f616e00000000000000000000000000000000000000000000000000000000602082015250565b6000610880602483610715565b915061088b82610824565b604082019050919050565b600060208201905081810360008301526108af81610873565b9050919050565b7f4c6f616e20697320616c72656164792072657061696400000000000000000000600082015250565b60006108ec601683610715565b91506108f7826108b6565b602082019050919050565b6000602082019050818103600083015261091b816108df565b9050919050565b7f4c6f616e206973206f7665726475650000000000000000000000000000000000600082015250565b6000610958600f83610715565b915061096382610922565b602082019050919050565b600060208201905081810360008301526109878161094b565b9050919050565b7f4e487b7100000000000000000000000000000000000000000000000000000000600052601160045260246000fd5b60006109c882610685565b91506109d383610685565b92508282026109e181610685565b915082820484148315176109f8576109f761098e565b5b5092915050565b7f4e487b7100000000000000000000000000000000000000000000000000000000600052601260045260246000fd5b6000610a3982610685565b9150610a4483610685565b925082610a5457610a536109ff565b5b828204905092915050565b6000610a6a82610685565b9150610a7583610685565b9250828201905080821115610a8d57610a8c61098e565b5b92915050565b7f496e73756666696369656e742072657061796d656e7420616d6f756e74000000600082015250565b6000610ac9601d83610715565b9150610ad482610a93565b602082019050919050565b60006020820190508181036000830152610af881610abc565b905091905056fea264697066735822122095db2449c01b34b0bd1dd0085024fbddfb31134159c6a5935f9e6e2ac004fa0f64736f6c634300081c0033a2646970667358221220b29d588913d145ff7def5407145118c2025be0aaa3c9d9a751fcf97078a45cfd64736f6c634300081c0033",
  "linkReferences": {},
  "deployedLinkReferences": {}
}