{
  "_format": "hh-sol-artifact-1",
  "contractName": "LendingFactory",
  "sourceName": "contracts/LendingFactory.sol",
  "abi": [
    {
      "anonymous": false,
      "inputs": [
        {
          "indexed": true,
          "internalType": "uint256",
          "name": "requestId",
          "type": "uint256"
        },
        {
          "indexed": true,
          "internalType": "address",
          "name": "borrower",
          "type": "address"
        }
      ],
      "name": "BorrowingRequestCreated",
      "type": "event"
    },
    {
      "anonymous": false,
      "inputs": [
        {
          "indexed": true,
          "internalType": "address",
          "name": "contractAddress",
          "type": "address"
        },
        {
          "indexed": true,
          "internalType": "address",
          "name": "borrower",
          "type": "address"
        },
        {
          "indexed": true,
          "internalType": "address",
          "name": "lender",
          "type": "address"
        }
      ],
      "name": "LendingContractCreated",
      "type": "event"
    },
    {
      "stateMutability": "payable",
      "type": "fallback"
    },
    {
      "inputs": [
        {
          "internalType": "uint256",
          "name": "",
          "type": "uint256"
        }
      ],
      "name": "borrowingRequests",
      "outputs": [
        {
          "internalType": "uint256",
          "name": "id",
          "type": "uint256"
        },
        {
          "internalType": "address",
          "name": "borrower",
          "type": "address"
        },
        {
          "internalType": "uint256",
          "name": "loanAmount",
          "type": "uint256"
        },
        {
          "internalType": "uint256",
          "name": "interestRate",
          "type": "uint256"
        },
        {
          "internalType": "uint256",
          "name": "repaymentPeriod",
          "type": "uint256"
        },
        {
          "internalType": "bool",
          "name": "isFunded",
          "type": "bool"
        }
      ],
      "stateMutability": "view",
      "type": "function"
    },
    {
      "inputs": [
        {
          "internalType": "uint256",
          "name": "_loanAmount",
          "type": "uint256"
        },
        {
          "internalType": "uint256",
          "name": "_interestRate",
          "type": "uint256"
        },
        {
          "internalType": "uint256",
          "name": "_repaymentPeriod",
          "type": "uint256"
        }
      ],
      "name": "createBorrowingRequest",
      "outputs": [],
      "stateMutability": "nonpayable",
      "type": "function"
    },
    {
      "inputs": [
        {
          "internalType": "uint256",
          "name": "_requestId",
          "type": "uint256"
        }
      ],
      "name": "fundBorrowingRequest",
      "outputs": [],
      "stateMutability": "payable",
      "type": "function"
    },
    {
      "inputs": [],
      "name": "getBalance",
      "outputs": [
        {
          "internalType": "uint256",
          "name": "",
          "type": "uint256"
        }
      ],
      "stateMutability": "view",
      "type": "function"
    },
    {
      "inputs": [],
      "name": "getBorrowingRequests",
      "outputs": [
        {
          "components": [
            {
              "internalType": "uint256",
              "name": "id",
              "type": "uint256"
            },
            {
              "internalType": "address",
              "name": "borrower",
              "type": "address"
            },
            {
              "internalType": "uint256",
              "name": "loanAmount",
              "type": "uint256"
            },
            {
              "internalType": "uint256",
              "name": "interestRate",
              "type": "uint256"
            },
            {
              "internalType": "uint256",
              "name": "repaymentPeriod",
              "type": "uint256"
            },
            {
              "internalType": "bool",
              "name": "isFunded",
              "type": "bool"
            }
          ],
          "internalType": "struct LendingFactory.BorrowingRequest[]",
          "name": "",
          "type": "tuple[]"
        }
      ],
      "stateMutability": "view",
      "type": "function"
    },
    {
      "inputs": [],
      "name": "getLendingContracts",
      "outputs": [
        {
          "internalType": "address[]",
          "name": "",
          "type": "address[]"
        }
      ],
      "stateMutability": "view",
      "type": "function"
    },
    {
      "inputs": [
        {
          "internalType": "uint256",
          "name": "",
          "type": "uint256"
        }
      ],
      "name": "lendingContracts",
      "outputs": [
        {
          "internalType": "address",
          "name": "",
          "type": "address"
        }
      ],
      "stateMutability": "view",
      "type": "function"
    },
    {
      "inputs": [],
      "name": "receiveEth",
      "outputs": [],
      "stateMutability": "payable",
      "type": "function"
    },
    {
      "stateMutability": "payable",
      "type": "receive"
    }
  ],
  "bytecode": "0x6080604052348015600f57600080fd5b50611c2a8061001f6000396000f3fe60806040526004361061007f5760003560e01c80635fcc53211161004e5780635fcc53211461011f57806380a960071461014a578063d7d8cb531461018c578063eebb3b96146101a857610080565b80630f8ff89b1461008257806312065fe0146100ad5780634185f8eb146100d8578063531a2a94146100e257610080565b5b005b34801561008e57600080fd5b506100976101d1565b6040516100a49190610a13565b60405180910390f35b3480156100b957600080fd5b506100c26102c9565b6040516100cf9190610a44565b60405180910390f35b6100e06102d1565b005b3480156100ee57600080fd5b5061010960048036038101906101049190610a90565b6102d3565b6040516101169190610acc565b60405180910390f35b34801561012b57600080fd5b50610134610312565b6040516101419190610b96565b60405180910390f35b34801561015657600080fd5b50610171600480360381019061016c9190610a90565b6103a0565b60405161018396959493929190610bc7565b60405180910390f35b6101a660048036038101906101a19190610a90565b610419565b005b3480156101b457600080fd5b506101cf60048036038101906101ca9190610c28565b610706565b005b60606000805480602002602001604051908101604052809291908181526020016000905b828210156102c057838290600052602060002090600602016040518060c0016040529081600082015481526020016001820160009054906101000a900473ffffffffffffffffffffffffffffffffffffffff1673ffffffffffffffffffffffffffffffffffffffff1673ffffffffffffffffffffffffffffffffffffffff1681526020016002820154815260200160038201548152602001600482015481526020016005820160009054906101000a900460ff161515151581525050815260200190600101906101f5565b50505050905090565b600047905090565b565b600181815481106102e357600080fd5b906000526020600020016000915054906101000a900473ffffffffffffffffffffffffffffffffffffffff1681565b6060600180548060200260200160405190810160405280929190818152602001828054801561039657602002820191906000526020600020905b8160009054906101000a900473ffffffffffffffffffffffffffffffffffffffff1673ffffffffffffffffffffffffffffffffffffffff168152602001906001019080831161034c575b5050505050905090565b600081815481106103b057600080fd5b90600052602060002090600602016000915090508060000154908060010160009054906101000a900473ffffffffffffffffffffffffffffffffffffffff16908060020154908060030154908060040154908060050160009054906101000a900460ff16905086565b6000805490508110610460576040517f08c379a000000000000000000000000000000000000000000000000000000000815260040161045790610cd8565b60405180910390fd5b600080828154811061047557610474610cf8565b5b906000526020600020906006020190508060050160009054906101000a900460ff16156104d7576040517f08c379a00000000000000000000000000000000000000000000000000000000081526004016104ce90610d73565b60405180910390fd5b8060020154341461051d576040517f08c379a000000000000000000000000000000000000000000000000000000000815260040161051490610ddf565b60405180910390fd5b60018160050160006101000a81548160ff02191690831515021790555060008160010160009054906101000a900473ffffffffffffffffffffffffffffffffffffffff1682600201548360030154846004015460405161057c90610867565b6105899493929190610dff565b604051809103906000f0801580156105a5573d6000803e3d6000fd5b5090508073ffffffffffffffffffffffffffffffffffffffff16638db57994346040518263ffffffff1660e01b81526004016000604051808303818588803b1580156105f057600080fd5b505af1158015610604573d6000803e3d6000fd5b50505050506001819080600181540180825580915050600190039060005260206000200160009091909190916101000a81548173ffffffffffffffffffffffffffffffffffffffff021916908373ffffffffffffffffffffffffffffffffffffffff1602179055503373ffffffffffffffffffffffffffffffffffffffff168260010160009054906101000a900473ffffffffffffffffffffffffffffffffffffffff1673ffffffffffffffffffffffffffffffffffffffff168273ffffffffffffffffffffffffffffffffffffffff167f663204f1b33ffe60ffd4834a784b8245071307fabd741abde19ed0ba9cf84f8860405160405180910390a4505050565b60006040518060c0016040528060008054905081526020013373ffffffffffffffffffffffffffffffffffffffff1681526020018581526020018481526020018381526020016000151581525090806001815401808255809150506001900390600052602060002090600602016000909190919091506000820151816000015560208201518160010160006101000a81548173ffffffffffffffffffffffffffffffffffffffff021916908373ffffffffffffffffffffffffffffffffffffffff16021790555060408201518160020155606082015181600301556080820151816004015560a08201518160050160006101000a81548160ff02191690831515021790555050503373ffffffffffffffffffffffffffffffffffffffff1660016000805490506108369190610e73565b7fbee01cbb349f6540d4370b913c4703621ab4417cc41c3ffa1686303ed4cd69e760405160405180910390a3505050565b610d4d80610ea883390190565b600081519050919050565b600082825260208201905092915050565b6000819050602082019050919050565b6000819050919050565b6108b3816108a0565b82525050565b600073ffffffffffffffffffffffffffffffffffffffff82169050919050565b60006108e4826108b9565b9050919050565b6108f4816108d9565b82525050565b60008115159050919050565b61090f816108fa565b82525050565b60c08201600082015161092b60008501826108aa565b50602082015161093e60208501826108eb565b50604082015161095160408501826108aa565b50606082015161096460608501826108aa565b50608082015161097760808501826108aa565b5060a082015161098a60a0850182610906565b50505050565b600061099c8383610915565b60c08301905092915050565b6000602082019050919050565b60006109c082610874565b6109ca818561087f565b93506109d583610890565b8060005b83811015610a065781516109ed8882610990565b97506109f8836109a8565b9250506001810190506109d9565b5085935050505092915050565b60006020820190508181036000830152610a2d81846109b5565b905092915050565b610a3e816108a0565b82525050565b6000602082019050610a596000830184610a35565b92915050565b600080fd5b610a6d816108a0565b8114610a7857600080fd5b50565b600081359050610a8a81610a64565b92915050565b600060208284031215610aa657610aa5610a5f565b5b6000610ab484828501610a7b565b91505092915050565b610ac6816108d9565b82525050565b6000602082019050610ae16000830184610abd565b92915050565b600081519050919050565b600082825260208201905092915050565b6000819050602082019050919050565b6000610b1f83836108eb565b60208301905092915050565b6000602082019050919050565b6000610b4382610ae7565b610b4d8185610af2565b9350610b5883610b03565b8060005b83811015610b89578151610b708882610b13565b9750610b7b83610b2b565b925050600181019050610b5c565b5085935050505092915050565b60006020820190508181036000830152610bb08184610b38565b905092915050565b610bc1816108fa565b82525050565b600060c082019050610bdc6000830189610a35565b610be96020830188610abd565b610bf66040830187610a35565b610c036060830186610a35565b610c106080830185610a35565b610c1d60a0830184610bb8565b979650505050505050565b600080600060608486031215610c4157610c40610a5f565b5b6000610c4f86828701610a7b565b9350506020610c6086828701610a7b565b9250506040610c7186828701610a7b565b9150509250925092565b600082825260208201905092915050565b7f496e76616c696420726571756573742049440000000000000000000000000000600082015250565b6000610cc2601283610c7b565b9150610ccd82610c8c565b602082019050919050565b60006020820190508181036000830152610cf181610cb5565b9050919050565b7f4e487b7100000000000000000000000000000000000000000000000000000000600052603260045260246000fd5b7f5265717565737420697320616c72656164792066756e64656400000000000000600082015250565b6000610d5d601983610c7b565b9150610d6882610d27565b602082019050919050565b60006020820190508181036000830152610d8c81610d50565b9050919050565b7f496e636f7272656374206c6f616e20616d6f756e740000000000000000000000600082015250565b6000610dc9601583610c7b565b9150610dd482610d93565b602082019050919050565b60006020820190508181036000830152610df881610dbc565b9050919050565b6000608082019050610e146000830187610abd565b610e216020830186610a35565b610e2e6040830185610a35565b610e3b6060830184610a35565b95945050505050565b7f4e487b7100000000000000000000000000000000000000000000000000000000600052601160045260246000fd5b6000610e7e826108a0565b9150610e89836108a0565b9250828203905081811115610ea157610ea0610e44565b5b9291505056fe608060405234801561001057600080fd5b50604051610d4d380380610d4d83398181016040528101906100329190610156565b836000806101000a81548173ffffffffffffffffffffffffffffffffffffffff021916908373ffffffffffffffffffffffffffffffffffffffff160217905550826002819055508160038190555080600481905550804261009391906101ec565b6005819055506000600660006101000a81548160ff02191690831515021790555050505050610220565b600080fd5b600073ffffffffffffffffffffffffffffffffffffffff82169050919050565b60006100ed826100c2565b9050919050565b6100fd816100e2565b811461010857600080fd5b50565b60008151905061011a816100f4565b92915050565b6000819050919050565b61013381610120565b811461013e57600080fd5b50565b6000815190506101508161012a565b92915050565b600080600080608085870312156101705761016f6100bd565b5b600061017e8782880161010b565b945050602061018f87828801610141565b93505060406101a087828801610141565b92505060606101b187828801610141565b91505092959194509250565b7f4e487b7100000000000000000000000000000000000000000000000000000000600052601160045260246000fd5b60006101f782610120565b915061020283610120565b925082820190508082111561021a576102196101bd565b5b92915050565b610b1e8061022f6000396000f3fe6080604052600436106100ab5760003560e01c80638db57994116100645780638db579941461018f578063952ce7d7146101995780639d585f7f146101c4578063bcead63e146101ef578063d0bfec621461021a578063f966ade714610245576100ac565b806312065fe0146100ae5780634185f8eb146100d95780636164051a146100e3578063786716fe1461010e5780637c3a00fd146101395780637df1f1b914610164576100ac565b5b005b3480156100ba57600080fd5b506100c361024f565b6040516100d091906106bd565b60405180910390f35b6100e1610257565b005b3480156100ef57600080fd5b506100f8610259565b60405161010591906106f3565b60405180910390f35b34801561011a57600080fd5b5061012361026c565b60405161013091906106bd565b60405180910390f35b34801561014557600080fd5b5061014e610272565b60405161015b91906106bd565b60405180910390f35b34801561017057600080fd5b50610179610278565b604051610186919061074f565b60405180910390f35b61019761029c565b005b3480156101a557600080fd5b506101ae610421565b6040516101bb91906106f3565b60405180910390f35b3480156101d057600080fd5b506101d961042e565b6040516101e691906106bd565b60405180910390f35b3480156101fb57600080fd5b50610204610434565b604051610211919061074f565b60405180910390f35b34801561022657600080fd5b5061022f61045a565b60405161023c91906106bd565b60405180910390f35b61024d610460565b005b600047905090565b565b600660009054906101000a900460ff1681565b60055481565b60035481565b60008054906101000a900473ffffffffffffffffffffffffffffffffffffffff1681565b60008054906101000a900473ffffffffffffffffffffffffffffffffffffffff1673ffffffffffffffffffffffffffffffffffffffff163373ffffffffffffffffffffffffffffffffffffffff160361032a576040517f08c379a0000000000000000000000000000000000000000000000000000000008152600401610321906107ed565b60405180910390fd5b600254341461036e576040517f08c379a000000000000000000000000000000000000000000000000000000000815260040161036590610859565b60405180910390fd5b33600160006101000a81548173ffffffffffffffffffffffffffffffffffffffff021916908373ffffffffffffffffffffffffffffffffffffffff160217905550600160009054906101000a900473ffffffffffffffffffffffffffffffffffffffff1673ffffffffffffffffffffffffffffffffffffffff167f726d5f1a838fe31748f737fa3ae5539ccff95952adfc593a1299532b643ff7a83460405161041791906106bd565b60405180910390a2565b6000600554421015905090565b60025481565b600160009054906101000a900473ffffffffffffffffffffffffffffffffffffffff1681565b60045481565b60008054906101000a900473ffffffffffffffffffffffffffffffffffffffff1673ffffffffffffffffffffffffffffffffffffffff163373ffffffffffffffffffffffffffffffffffffffff16146104ee576040517f08c379a00000000000000000000000000000000000000000000000000000000081526004016104e5906108eb565b60405180910390fd5b600660009054906101000a900460ff161561053e576040517f08c379a000000000000000000000000000000000000000000000000000000000815260040161053590610957565b60405180910390fd5b600061271060035460025461055391906109a6565b61055d9190610a17565b60025461056a9190610a48565b9050803410156105af576040517f08c379a00000000000000000000000000000000000000000000000000000000081526004016105a690610ac8565b60405180910390fd5b6001600660006101000a81548160ff021916908315150217905550600160009054906101000a900473ffffffffffffffffffffffffffffffffffffffff1673ffffffffffffffffffffffffffffffffffffffff166108fc829081150290604051600060405180830381858888f19350505050158015610632573d6000803e3d6000fd5b5060008054906101000a900473ffffffffffffffffffffffffffffffffffffffff1673ffffffffffffffffffffffffffffffffffffffff167fc200a1f31dd659e356e0f112c82558e25f49f7b0f84438691cd96f5cb35588238260405161069991906106bd565b60405180910390a250565b6000819050919050565b6106b7816106a4565b82525050565b60006020820190506106d260008301846106ae565b92915050565b60008115159050919050565b6106ed816106d8565b82525050565b600060208201905061070860008301846106e4565b92915050565b600073ffffffffffffffffffffffffffffffffffffffff82169050919050565b60006107398261070e565b9050919050565b6107498161072e565b82525050565b60006020820190506107646000830184610740565b92915050565b600082825260208201905092915050565b7f426f72726f7765722063616e6e6f742066756e64207468656972206f776e206c60008201527f6f616e0000000000000000000000000000000000000000000000000000000000602082015250565b60006107d760238361076a565b91506107e28261077b565b604082019050919050565b60006020820190508181036000830152610806816107ca565b9050919050565b7f496e636f7272656374206c6f616e20616d6f756e740000000000000000000000600082015250565b600061084360158361076a565b915061084e8261080d565b602082019050919050565b6000602082019050818103600083015261087281610836565b9050919050565b7f4f6e6c792074686520626f72726f7765722063616e207265706179207468652060008201527f6c6f616e00000000000000000000000000000000000000000000000000000000602082015250565b60006108d560248361076a565b91506108e082610879565b604082019050919050565b60006020820190508181036000830152610904816108c8565b9050919050565b7f4c6f616e20697320616c72656164792072657061696400000000000000000000600082015250565b600061094160168361076a565b915061094c8261090b565b602082019050919050565b6000602082019050818103600083015261097081610934565b9050919050565b7f4e487b7100000000000000000000000000000000000000000000000000000000600052601160045260246000fd5b60006109b1826106a4565b91506109bc836106a4565b92508282026109ca816106a4565b915082820484148315176109e1576109e0610977565b5b5092915050565b7f4e487b7100000000000000000000000000000000000000000000000000000000600052601260045260246000fd5b6000610a22826106a4565b9150610a2d836106a4565b925082610a3d57610a3c6109e8565b5b828204905092915050565b6000610a53826106a4565b9150610a5e836106a4565b9250828201905080821115610a7657610a75610977565b5b92915050565b7f496e73756666696369656e742072657061796d656e7420616d6f756e74000000600082015250565b6000610ab2601d8361076a565b9150610abd82610a7c565b602082019050919050565b60006020820190508181036000830152610ae181610aa5565b905091905056fea26469706673582212205c07c01c72e52ead4410ae8acfbd71bffc3a5fff5112625f73d566968300a1d864736f6c634300081c0033a264697066735822122026973ad63dc7f0e1e94036905b0d31b0f27b0bc13e8d77e328d41ad5b91a35ce64736f6c634300081c0033",
  "linkReferences": {},
  "deployedLinkReferences": {}
}